:100000000C9462000C948A000C948A000C948A0070
:100010000C948A000C948A000C948A000C948A0038
:100020000C948A000C948A000C948A000C94590356
:100030000C948A000C948A000C948A000C948A0018
:100040000C94B7020C948A000C9427030C940103BF
:100050000C948A000C948A000C948A000C948A00F8
:100060000C948A000C948A000000000023002600F3
:10007000290000000000240027002A0000000000E2
:10008000250028002B0004040404040404040202D4
:100090000202020203030303030301020408102007
:1000A0004080010204081020010204081020000012
:1000B0000008000201000003040700000000000027
:1000C00000005A0411241FBECFEFD8E0DEBFCDBF21
:1000D00011E0A0E0B1E0E0E2FDE002C005900D9289
:1000E000A231B107D9F721E0A2E1B1E001C01D9230
:1000F000A53EB207E1F710E0C2E6D0E004C02197C8
:10010000FE010E948806C136D107C9F70E94B704D4
:100110000C948E060C940000CF92DF92EF92FF9227
:10012000DC01A03282E0B807D4F5A53BB10514F09C
:10013000A4EBB0E04091E30128E830E0241B310952
:1001400047FD3395220F331F220F331F6901330FF1
:10015000EE08FF084091E40128E532E0241B310954
:1001600047FD3395220F331F220F331F032E000C40
:10017000440B550B2C193D094E095F09B7FF02C00E
:10018000B0E0A0E00E94430624EB30E040E050E005
:100190000E941906C20ED31EE41EF51ED601E09180
:1001A000E201EC3080F52091E30188E890E0821BC9
:1001B000910927FD9395880F991F880F991FA817FC
:1001C000B90784F02091E40188E592E0821B91094F
:1001D00027FD9395880F991F880F991FA817B907B6
:1001E0000CF4CD010297880F991F4FB7F8942E2F6A
:1001F00030E0F901EE0FFF1FE20FF31FE354FE4F53
:10020000928381834FBFFF90EF90DF90CF9008954E
:1002100090E0FC01E255FF4F2491FC01E656FF4FB0
:100220003491FC01EA57FF4FE491EE23C9F02223F9
:1002300039F0233001F1A8F4213019F1223029F1ED
:10024000F0E0EE0FFF1FE458FF4FA591B4918FB778
:10025000F894EC91611126C030953E233C938FBFFA
:1002600008952730A9F02830C9F0243049F780914B
:1002700080008F7D03C0809180008F778093800005
:10028000DFCF84B58F7784BDDBCF84B58F7DFBCF87
:100290008091B0008F778093B000D2CF8091B00072
:1002A0008F7DF9CF3E2BDACFCF93DF9390E0FC0127
:1002B000E656FF4F24918A579F4FFC018491882373
:1002C000D1F090E0880F991FFC01EE58FF4FA591E7
:1002D000B491FC01E458FF4FC591D49161110EC057
:1002E0009FB7F8948C91E22FE0958E238C93288110
:1002F000E223E8839FBFDF91CF9108958FB7F894F1
:10030000EC91E22BEC938FBFF6CF3FB7F89480913E
:100310001C0190911D01A0911E01B0911F0126B5F5
:10032000A89B05C02F3F19F00196A11DB11D3FBF2D
:10033000BA2FA92F982F8827BC01CD01620F711DFC
:10034000811D911D42E0660F771F881F991F4A95F6
:10035000D1F70895AF92BF92CF92DF92EF92FF92C2
:100360000F931F93CF93DF936C017B018B01040FDD
:10037000151FEB015E01AE18BF08C017D10759F079
:100380006991D601ED91FC910190F081E02DC601BB
:100390000995892B79F7C501DF91CF911F910F91B5
:1003A000FF90EF90DF90CF90BF90AF900895FC0149
:1003B000538D448D252F30E0842F90E0821B930BCA
:1003C000541710F0CF96089501970895FC01918D70
:1003D000828D981761F0A28DAE0FBF2FB11D5D9673
:1003E0008C91928D9F5F9F73928F90E008958FEF15
:1003F0009FEF0895FC01918D828D981731F0828DC9
:10040000E80FF11D858D90E008958FEF9FEF08951F
:10041000FC01918D228D892F90E0805C9F4F821B83
:1004200091098F739927089580E291E00E94080254
:1004300021E0892B09F420E0822F089580E090E0EC
:10044000892B29F00E94140281110C940000089558
:10045000FC01A48DA80FB92FB11DA35ABF4F2C9139
:10046000848D90E001968F739927848FA689B78930
:100470002C93A089B1898C91837080648C93938D27
:10048000848D981306C00288F389E02D80818F7DCA
:1004900080830895EF92FF920F931F93CF93DF9382
:1004A000EC0181E0888F9B8D8C8D98131AC0E889B0
:1004B000F989808185FF15C09FB7F894EE89FF897F
:1004C0006083E889F98980818370806480839FBF1D
:1004D00081E090E0DF91CF911F910F91FF90EF901D
:1004E0000895F62E0B8D10E00F5F1F4F0F7311272D
:1004F000E02E8C8D8E110CC00FB607FCFACFE88968
:10050000F989808185FFF5CFCE010E942802F1CFC5
:10051000EB8DEC0FFD2FF11DE35AFF4FF0829FB7DB
:10052000F8940B8FEA89FB8980818062CFCFCF93CB
:10053000DF93EC01888D8823B9F0AA89BB89E8890B
:10054000F9898C9185FD03C0808186FD0DC00FB6B1
:1005500007FCF7CF8C9185FFF2CF808185FFEDCF2F
:10056000CE010E942802E9CFDF91CF9108951F921A
:100570000F920FB60F9211242F933F938F939F9357
:10058000AF93BF938091180190911901A0911A0126
:10059000B0911B013091170123E0230F2D3758F53F
:1005A0000196A11DB11D209317018093180190930E
:1005B0001901A0931A01B0931B0180911C01909125
:1005C0001D01A0911E01B0911F010196A11DB11D39
:1005D00080931C0190931D01A0931E01B0931F01F5
:1005E000BF91AF919F918F913F912F910F900FBE2F
:1005F0000F901F90189526E8230F0296A11DB11D9C
:10060000D2CF1F920F920FB60F9211242F933F93C8
:100610004F935F936F937F938F939F93AF93BF930A
:10062000EF93FF9380E291E00E942802FF91EF9107
:10063000BF91AF919F918F917F916F915F914F91FA
:100640003F912F910F900FBE0F901F9018951F9202
:100650000F920FB60F9211242F938F939F93EF93C6
:10066000FF93E0913001F09131018081E0913601FA
:10067000F091370182FD1BC09081809139018F5F1D
:100680008F7320913A01821741F0E0913901F0E037
:10069000E05EFE4F958F80933901FF91EF919F911E
:1006A0008F912F910F900FBE0F901F901895808102
:1006B000F4CF1F920F920FB60F9211242F933F93F6
:1006C0004F935F936F937F938F939F93AF93BF935A
:1006D000CF93DF93EF93FF9380911201C091E101DB
:1006E000D0E087FF24C01092850010928400809192
:1006F00012018F5F8093120180911201082E000C6D
:10070000990B8C179D0724F4809112018C30C4F151
:100710008091840090918500049680349C4908F46F
:100720007AC08091840090918500049676C0809173
:100730001201082E000C990B8C179D07C4F6E0914E
:1007400012018E2FEE0F990BFC01EE0FFF1FE80F29
:10075000F91FE354FE4F808186FFC9CFE09112015B
:100760008E2FEE0F990BFC01EE0FFF1FE80FF91F04
:10077000E354FE4F808160E08F730E940801B7CF81
:100780002091840030918500E09112018E2FEE0FB0
:10079000990BFC01EE0FFF1FE80FF91FE354FE4F0A
:1007A00081819281820F931F9093890080938800AA
:1007B000E09112018E2FEE0F990BFC01EE0FFF1F3F
:1007C000E80FF91FE354FE4F808186FF11C0E091CE
:1007D00012018E2FEE0F990BFC01EE0FFF1FE80F99
:1007E000F91FE354FE4F808161E08F730E9408017E
:1007F000FF91EF91DF91CF91BF91AF919F918F9139
:100800007F916F915F914F913F912F910F900FBE0C
:100810000F901F90189580E49CE990938900809335
:1008200088008FEF80931201E3CFCF92DF92EF9297
:10083000FF920F931F93E82FF92F05C00150110964
:100840002109310961F1908196239417B9F305C00C
:10085000015011092109310911F190819623941356
:10086000F7CFC12CD12CE12CF12C0AC08FEFC81A84
:10087000D80AE80AF80A0C151D052E053F0579F07F
:1008800080818623841791F36C2D7D2D8E2D9F2DD5
:100890001F910F91FF90EF90DF90CF90089560E04F
:1008A00070E080E090E01F910F91FF90EF90DF905B
:1008B000CF900895109223011092220188EE93E0C8
:1008C000A0E0B0E08093240190932501A09326013D
:1008D000B093270184E091E090932101809320015F
:1008E00085EC90E090932D0180932C0184EC90E0B6
:1008F00090932F0180932E0180EC90E09093310132
:100900008093300181EC90E0909333018093320129
:1009100082EC90E0909335018093340186EC90E076
:1009200090933701809336011092390110923A0169
:1009300010923B0110923C018091E1018C3098F4BF
:1009400091E0980F9093E1018093E20190E0FC0127
:10095000EE0FFF1FE80FF91FE354FE4F88EB9BE0FB
:100960009283818308958FEF8093E20108957894B4
:1009700084B5826084BD84B5816084BD85B58260A4
:1009800085BD85B5816085BD80916E008160809355
:100990006E001092810080918100826080938100BE
:1009A00080918100816080938100809180008160CE
:1009B000809380008091B10084608093B100809129
:1009C000B00081608093B00080917A008460809351
:1009D0007A0080917A00826080937A0080917A0018
:1009E000816080937A0080917A00806880937A0099
:1009F0001092C100E0913001F091310182E08083DA
:100A0000E0912C01F0912D011082E0912E01F091E6
:100A10002F018FEC808310923801E0913401F09126
:100A2000350186E08083E0913201F09133018081CD
:100A300080618083E0913201F09133018081886090
:100A40008083E0913201F09133018081806880835E
:100A5000E0913201F091330180818F7D808380911C
:100A6000E2018C3008F051C061E085E00E94540141
:100A70008091E201282F30E0F901EE0FFF1FE20F15
:100A8000F31FE354FE4F9081907C95609083109209
:100A9000E3011092E4012CE0622F0E947C06829F09
:100AA000B001112430E020E0AB01420F531FFA01E6
:100AB000EE0FFF1FE40FF51FE354FE4F908196FDEC
:100AC00016C02F5F3F4F2C30310571F781110FC0D9
:100AD0001092800082E08093810010928500109235
:100AE0008400B19A80916F00826080936F00E091E2
:100AF000E2018E2F90E0FC01EE0FFF1FE80FF91FBF
:100B0000E354FE4F80818064808323E2222E312CC7
:100B10003AE3432E512C612C712CC0E0D0E061E00F
:100B20008BE00E94540160E08BE00E94080183E0AA
:100B300090E00197F1F761E08BE00E940801C101AC
:100B40000197F1F760E08BE00E94080160E088E027
:100B50000E945401E2EAF0E06491EEE8F0E0849152
:100B6000E82FF0E0EE0FFF1FE859FF4F85919491B9
:100B700000E412E42FE030E0462F0E9415046115D6
:100B800071058105910529F06F5F7F4F8F4F9F4F52
:100B90009F707093160160931501E0901301F0901F
:100BA0001401072E000C880B990BA30192010E94DF
:100BB0001906C9013093140120931301892B59F1AF
:100BC0002B3531059CF5C7018D960E948C000E9443
:100BD00085014B015C0184E6C82ED12CE12CF12C5F
:100BE0000E948501681979098A099B09683E73404A
:100BF00081059105A8F3F1E0CF1AD108E108F108C9
:100C000028EE820E23E0921EA11CB11CC114D10457
:100C1000E104F10429F7209709F481CF0E9414021E
:100C2000882309F47CCF0E94000079CF8AE590E008
:100C3000CCCF052E97FB1EF400940E94300657FD82
:100C400007D00E944B0607FC03D04EF40C943006EC
:100C500050954095309521953F4F4F4F5F4F0895E8
:100C600090958095709561957F4F8F4F9F4F089518
:100C70000E946D06A59F900DB49F900DA49F800DBE
:100C8000911D11240895B7FF0C9438060E94380670
:100C9000821B930B0895A1E21A2EAA1BBB1BFD0118
:100CA0000DC0AA1FBB1FEE1FFF1FA217B307E4074B
:100CB000F50720F0A21BB30BE40BF50B661F771FA3
:100CC000881F991F1A9469F7609570958095909583
:100CD0009B01AC01BD01CF010895A29FB001B39F5C
:100CE000C001A39F700D811D1124911DB29F700D35
:100CF000811D1124911D0895991B79E004C0991F4D
:100D0000961708F0961B881F7A95C9F78095089565
:100D1000EE0FFF1F0590F491E02D0994F894FFCF9A
:100D2000000000004A02AA01D70197020802E6016A
:020D3000FA01C6
:00000001FF
