:100000000C9462000C948A000C948A000C948A0070
:100010000C948A000C948A000C948A000C948A0038
:100020000C948A000C948A000C948A000C9442036D
:100030000C948A000C948A000C948A000C948A0018
:100040000C94A0020C948A000C9410030C94EA0205
:100050000C948A000C948A000C948A000C948A00F8
:100060000C948A000C948A000000000023002600F3
:10007000290000000000240027002A0000000000E2
:10008000250028002B0004040404040404040202D4
:100090000202020203030303030301020408102007
:1000A0004080010204081020010204081020000012
:1000B0000008000201000003040700000000000027
:1000C0000000430411241FBECFEFD8E0DEBFCDBF38
:1000D00011E0A0E0B1E0E8ECFDE002C005900D9277
:1000E000A631B107D9F721E0A6E1B1E001C01D9228
:1000F000A93EB207E1F710E0C2E6D0E004C02197C4
:10010000FE010E94DC06C136D107C9F70E94A00497
:100110000C94E2060C9400008F929F92AF92BF92D3
:10012000FF920F931F93CF93DF93F090E6012BE0A4
:100130002F1508F44CC02091E80108E512E0021BDD
:10014000110927FD1395000F111F000F111F20919A
:10015000E701C8E8D0E0C21BD10927FDD395CC0F39
:10016000DD1FCC0FDD1F4E010D2E000CAA08BB08B1
:100170009801012E000C440B550B281939094A0926
:100180005B09DC010E94970624EB30E040E050E080
:100190000E946D06820E931EA41EB51E8C169D062F
:1001A0002CF0E801801691060CF4E4012297CC0FA4
:1001B000DD1F2FB7F8948F2D90E0FC01EE0FFF1F8D
:1001C000E80FF91FEF53FE4FD283C1832FBFDF919A
:1001D000CF911F910F91FF90BF90AF909F908F9004
:1001E000089590E0FC01E255FF4F2491FC01E65692
:1001F000FF4F3491FC01EA57FF4FE491EE23C9F021
:10020000222339F0233001F1A8F4213019F12230F2
:1002100029F1F0E0EE0FFF1FE458FF4FA591B491D4
:100220008FB7F894EC91611126C030953E233C9332
:100230008FBF08952730A9F02830C9F0243049F73E
:10024000809180008F7D03C0809180008F778093A4
:100250008000DFCF84B58F7784BDDBCF84B58F7D01
:10026000FBCF8091B0008F778093B000D2CF809188
:10027000B0008F7DF9CF3E2BDACFCF93DF9390E0A4
:10028000FC01E656FF4F24918A579F4FFC01849151
:100290008823D1F090E0880F991FFC01EE58FF4FA2
:1002A000A591B491FC01E458FF4FC591D49161111F
:1002B0000EC09FB7F8948C91E22FE0958E238C931B
:1002C0002881E223E8839FBFDF91CF9108958FB704
:1002D000F894EC91E22BEC938FBFF6CF3FB7F894F4
:1002E0008091200190912101A0912201B0912301E0
:1002F00026B5A89B05C02F3F19F00196A11DB11D81
:100300003FBFBA2FA92F982F8827BC01CD01620FBC
:10031000711D811D911D42E0660F771F881F991F77
:100320004A95D1F70895AF92BF92CF92DF92EF92A4
:10033000FF920F931F93CF93DF936C017B018B018F
:10034000040F151FEB015E01AE18BF08C017D107DF
:1003500059F06991D601ED91FC910190F081E02D69
:10036000C6010995892B79F7C501DF91CF911F91BE
:100370000F91FF90EF90DF90CF90BF90AF900895D6
:10038000FC01538D448D252F30E0842F90E0821B9B
:10039000930B541710F0CF96089501970895FC0120
:1003A000918D828D981761F0A28DAE0FBF2FB11D78
:1003B0005D968C91928D9F5F9F73928F90E00895D0
:1003C0008FEF9FEF0895FC01918D828D981731F08A
:1003D000828DE80FF11D858D90E008958FEF9FEFDE
:1003E0000895FC01918D228D892F90E0805C9F4FB4
:1003F000821B91098F739927089584E291E00E94EE
:10040000F10121E0892B09F420E0822F089580E09A
:1004100090E0892B29F00E94FD0181110C940000CD
:100420000895FC01A48DA80FB92FB11DA35ABF4F89
:100430002C91848D90E001968F739927848FA689E3
:10044000B7892C93A089B1898C91837080648C9337
:10045000938D848D981306C00288F389E02D8081E6
:100460008F7D80830895EF92FF920F931F93CF9318
:10047000DF93EC0181E0888F9B8D8C8D98131AC0DF
:10048000E889F989808185FF15C09FB7F894EE89C6
:10049000FF896083E889F989808183708064808323
:1004A0009FBF81E090E0DF91CF911F910F91FF906E
:1004B000EF900895F62E0B8D10E00F5F1F4F0F7316
:1004C0001127E02E8C8D8E110CC00FB607FCFACFD1
:1004D000E889F989808185FFF5CFCE010E9411025C
:1004E000F1CFEB8DEC0FFD2FF11DE35AFF4FF082A2
:1004F0009FB7F8940B8FEA89FB8980818062CFCF08
:10050000CF93DF93EC01888D8823B9F0AA89BB894A
:10051000E889F9898C9185FD03C0808186FD0DC035
:100520000FB607FCF7CF8C9185FFF2CF808185FF56
:10053000EDCFCE010E941102E9CFDF91CF91089556
:100540001F920F920FB60F9211242F933F938F9308
:100550009F93AF93BF9380911C0190911D01A09137
:100560001E01B0911F0130911B0123E0230F2D3795
:1005700058F50196A11DB11D20931B0180931C010C
:1005800090931D01A0931E01B0931F018091200143
:1005900090912101A0912201B09123010196A11D0A
:1005A000B11D8093200190932101A0932201B0936B
:1005B0002301BF91AF919F918F913F912F910F9008
:1005C0000FBE0F901F90189526E8230F0296A11DCD
:1005D000B11DD2CF1F920F920FB60F9211242F93FD
:1005E0003F934F935F936F937F938F939F93AF93BB
:1005F000BF93EF93FF9384E291E00E941102FF9179
:10060000EF91BF91AF919F918F917F916F915F918A
:100610004F913F912F910F900FBE0F901F90189503
:100620001F920F920FB60F9211242F938F939F93C7
:10063000EF93FF93E0913401F09135018081E091D7
:100640003A01F0913B0182FD1BC0908180913D01F8
:100650008F5F8F7320913E01821741F0E0913D0141
:10066000F0E0EC5DFE4F958F80933D01FF91EF919F
:100670009F918F912F910F900FBE0F901F90189503
:100680008081F4CF1F920F920FB60F9211242F93F7
:100690003F934F935F936F937F938F939F93AF930A
:1006A000BF93CF93DF93EF93FF9380911601C09197
:1006B000E501D0E087FF24C01092850010928400ED
:1006C000809116018F5F8093160180911601082E8C
:1006D000000C990B8C179D0724F4809116018C3027
:1006E000C4F18091840090918500049680349C49E7
:1006F00008F47AC08091840090918500049676C0B9
:1007000080911601082E000C990B8C179D07C4F6DA
:10071000E09116018E2FEE0F990BFC01EE0FFF1FDB
:10072000E80FF91FEF53FE4F808186FFC9CFE0919C
:1007300016018E2FEE0F990BFC01EE0FFF1FE80F35
:10074000F91FEF53FE4F808160E08F730E94F1002C
:10075000B7CF2091840030918500E09116018E2F53
:10076000EE0F990BFC01EE0FFF1FE80FF91FEF537F
:10077000FE4F81819281820F931F90938900809315
:100780008800E09116018E2FEE0F990BFC01EE0F01
:10079000FF1FE80FF91FEF53FE4F808186FF11C046
:1007A000E09116018E2FEE0F990BFC01EE0FFF1F4B
:1007B000E80FF91FEF53FE4F808161E08F730E94B5
:1007C000F100FF91EF91DF91CF91BF91AF919F9198
:1007D0008F917F916F915F914F913F912F910F90EA
:1007E0000FBE0F901F90189580E49CE990938900AC
:1007F000809388008FEF80931601E3CFCF92DF9232
:10080000EF92FF920F931F93E82FF92F05C001502D
:1008100011092109310961F1908196239417B9F3E7
:1008200005C0015011092109310911F19081962368
:100830009413F7CFC12CD12CE12CF12C0AC08FEFEF
:10084000C81AD80AE80AF80A0C151D052E053F0536
:1008500079F080818623841791F36C2D7D2D8E2D68
:100860009F2D1F910F91FF90EF90DF90CF900895F3
:1008700060E070E080E090E01F910F91FF90EF90BA
:10088000DF90CF900895109227011092260188EEF4
:1008900093E0A0E0B0E08093280190932901A09319
:1008A0002A01B0932B0184E091E09093250180937D
:1008B000240185EC90E0909331018093300184EC29
:1008C00090E0909333018093320180EC90E090931C
:1008D00035018093340181EC90E09093370180934F
:1008E000360182EC90E0909339018093380186ECD8
:1008F00090E090933B0180933A0110923D01109259
:100900003E0110923F01109240018091E5018C3030
:1009100098F491E0980F9093E5018093E60190E0C0
:10092000FC01EE0FFF1FE80FF91FEF53FE4F88EB9E
:100930009BE09283818308958FEF8093E601089571
:10094000CF93DF93CDB7DEB7A1970FB6F894DEBF94
:100950000FBECDBF789484B5826084BD84B58160BC
:1009600084BD85B5826085BD85B5816085BD80917A
:100970006E00816080936E001092810080918100F2
:1009800082608093810080918100816080938100EA
:10099000809180008160809380008091B1008460AC
:1009A0008093B1008091B00081608093B00080910D
:1009B0007A00846080937A0080917A0082608093CC
:1009C0007A0080917A00816080937A0080917A0029
:1009D000806880937A001092C100E0913401F09118
:1009E000350182E08083E0913001F0913101108285
:1009F000E0913201F09133018FEC808310923C0141
:100A0000E0913801F091390186E08083E091360170
:100A1000F0913701808180618083E0913601F0910F
:100A20003701808188608083E0913601F091370141
:100A3000808180688083E0913601F0913701808168
:100A40008F7D80838091E6018C3008F051C061E099
:100A500085E00E943D018091E601282F30E0F901F8
:100A6000EE0FFF1FE20FF31FEF53FE4F9081907CBC
:100A7000956090831092E7011092E8012CE0622FBC
:100A80000E94D006829FB001112430E020E0AB012B
:100A9000420F531FFA01EE0FFF1FE40FF51FEF5334
:100AA000FE4F908196FD16C02F5F3F4F2C303105D1
:100AB00071F781110FC01092800082E08093810055
:100AC0001092850010928400B19A80916F0082602C
:100AD00080936F00E091E6018E2F90E0FC01EE0F15
:100AE000FF1FE80FF91FEF53FE4F80818064808362
:100AF00061E083E00E943D012AE0422E512C612CEE
:100B0000712C30E0232E30E0332E61E08BE00E9428
:100B10003D0160E08BE00E94F10083E090E00197EE
:100B2000F1F761E08BE00E94F10083E290E0019731
:100B3000F1F760E08BE00E94F10060E088E00E9445
:100B40003D01E2EAF0E06491EEE8F0E08491E82F04
:100B5000F0E0EE0FFF1FE859FF4F8591949100E4FC
:100B600012E42FE030E0462F0E94FE03611571056C
:100B70008105910529F06F5F7F4F8F4F9F4F9F70C9
:100B800070931A0160931901072E000C880B990BC2
:100B90002AE330E040E050E00E946D06C901309346
:100BA000180120931701892B81F1293231050CF0AE
:100BB00078C081E090E00E948C0061E083E00E94B8
:100BC000F1000E946E014B015C0184E6C82ED12C1D
:100BD000E12CF12C0E946E01681979098A099B09A0
:100BE000683E734081059105A8F3F1E0CF1AD10862
:100BF000E108F10828EE820E23E0921EA11CB11C30
:100C0000C114D104E104F10429F7C0901701D09078
:100C100018010D2C000CEE08FF08F7FE48C06DE22D
:100C200084E291E00E94330222273327A9012C1984
:100C30003D094E095F0919A2CE0181967C01CA01C6
:100C4000B901A30192010E949F06605DF7016293C2
:100C50007F01211531054105510589F7E114F104A2
:100C600061F001900020E9F73197AF014E195F095B
:100C7000B70184E291E00E94930142E050E062E11A
:100C800071E084E291E00E9493012114310409F49F
:100C90003CCF0E94FD01882309F437CF0E94000059
:100CA00034CF8AE590E00E948C0060E087CFA701F6
:100CB000960119A2CE0181967C01CA01B901A30156
:100CC00092010E949F06605DF70162937F012115EA
:100CD00031054105510589F7C1CF052E97FB1EF45B
:100CE00000940E94840657FD07D00E949F0607FCCF
:100CF00003D04EF40C948406509540953095219580
:100D00003F4F4F4F5F4F0895909580957095619537
:100D10007F4F8F4F9F4F08950E94C106A59F900D52
:100D2000B49F900DA49F800D911D11240895B7FFCD
:100D30000C948C060E948C06821B930B0895A1E2F2
:100D40001A2EAA1BBB1BFD010DC0AA1FBB1FEE1F45
:100D5000FF1FA217B307E407F50720F0A21BB30B90
:100D6000E40BF50B661F771F881F991F1A9469F70C
:100D700060957095809590959B01AC01BD01CF0168
:100D80000895A29FB001B39FC001A39F700D811D64
:100D90001124911DB29F700D811D1124911D089584
:100DA000991B79E004C0991F961708F0961B881FBD
:100DB0007A95C9F780950895EE0FFF1F0590F4917D
:080DC000E02D0994F894FFCF27
:100DC8000000000033029301C0018002F101CF014D
:060DD800E3010D0A00001A
:00000001FF
