:100000000C945D000C9485000C9485000C94850084
:100010000C9485000C9485000C9485000C9485004C
:100020000C9485000C9485000C9485000C9485003C
:100030000C9485000C9485000C9485000C9485002C
:100040000C9424020C9485000C9494020C946E027F
:100050000C9485000C9485000C9485000C9485000C
:100060000C9485000C94850000000008000201003B
:100070000003040700000000000000000000000072
:10008000250028002B0000000000240027002A0083
:10009000040404040404040402020202020203032E
:1000A0000303030301020408102040800102040836
:1000B00010200102040810204D0411241FBECFEFB0
:1000C000D8E0DEBFCDBF11E0A0E0B1E0E8E4F9E0A8
:1000D00002C005900D92AA31B107D9F721E0AAE13B
:1000E000B1E001C01D92A03CB207E1F710E0CDE500
:1000F000D0E004C02197FE010E949C04CC35D107BA
:10010000C9F70E94C6020C94A2040C94000090E06F
:10011000FC01EC55FF4F249180579F4FFC018491C7
:10012000882399F090E0880F991FFC01EA57FF4F50
:10013000A591B491FC01E458FF4F859194918FB73C
:10014000F894EC91E22BEC938FBF089590E0FC01C2
:10015000E859FF4F2491FC01EC55FF4F3491FC010D
:10016000E057FF4FE491EE23C9F0222339F023300A
:1001700001F1A8F4213019F1223029F1F0E0EE0F5D
:10018000FF1FE458FF4FA591B4918FB7F894EC91FD
:10019000611126C030953E233C938FBF08952730D0
:1001A000A9F02830C9F0243049F7809180008F7D74
:1001B00003C0809180008F7780938000DFCF84B56B
:1001C0008F7784BDDBCF84B58F7DFBCF8091B0006E
:1001D0008F778093B000D2CF8091B0008F7DF9CF20
:1001E0003E2BDACF3FB7F8948091BC019091BD01CE
:1001F000A091BE01B091BF0126B5A89B05C02F3FBD
:1002000019F00196A11DB11D3FBFBA2FA92F982F3C
:100210008827BC01CD01620F711D811D911D42E037
:10022000660F771F881F991F4A95D1F70895AF92DF
:10023000BF92CF92DF92EF92FF920F931F93CF93D3
:10024000DF936C017B018B01040F151FEB015E0135
:10025000AE18BF08C017D10759F06991D601ED91CA
:10026000FC910190F081E02DC6010995892B79F769
:10027000C501DF91CF911F910F91FF90EF90DF901B
:10028000CF90BF90AF900895FC01538D448D252FE2
:1002900030E0842F90E0821B930B541710F0CF9620
:1002A000089501970895FC01918D828D981761F052
:1002B000A28DAE0FBF2FB11D5D968C91928D9F5F69
:1002C0009F73928F90E008958FEF9FEF0895FC0148
:1002D000918D828D981731F0828DE80FF11D858DFB
:1002E00090E008958FEF9FEF0895FC01918D228D8E
:1002F000892F90E0805C9F4F821B91098F73992713
:1003000008958AE191E00E94750121E0892B09F4AA
:1003100020E0822F089580E090E0892B29F00E9450
:10032000810181110C9400000895FC01A48DA80F97
:10033000B92FB11DA35ABF4F2C91848D90E0019627
:100340008F739927848FA689B7892C93A089B18947
:100350008C91837080648C93938D848D981306C0E8
:100360000288F389E02D80818F7D80830895EF924C
:10037000FF920F931F93CF93DF93EC0181E0888F5F
:100380009B8D8C8D98131AC0E889F989808185FF2F
:1003900015C09FB7F894EE89FF896083E889F989D1
:1003A00080818370806480839FBF81E090E0DF91D3
:1003B000CF911F910F91FF90EF900895F62E0B8D26
:1003C00010E00F5F1F4F0F731127E02E8C8D8E11E1
:1003D0000CC00FB607FCFACFE889F989808185FF48
:1003E000F5CFCE010E949501F1CFEB8DEC0FFD2FE3
:1003F000F11DE35AFF4FF0829FB7F8940B8FEA8903
:10040000FB8980818062CFCFCF93DF93EC01888D11
:100410008823B9F0AA89BB89E889F9898C9185FD7F
:1004200003C0808186FD0DC00FB607FCF7CF8C910D
:1004300085FFF2CF808185FFEDCFCE010E9495012F
:10044000E9CFDF91CF9108951F920F920FB60F92CF
:1004500011242F933F938F939F93AF93BF938091DA
:10046000B8019091B901A091BA01B091BB0130914E
:10047000B70123E0230F2D3758F50196A11DB11DBB
:100480002093B7018093B8019093B901A093BA016A
:10049000B093BB018091BC019091BD01A091BE01C0
:1004A000B091BF010196A11DB11D8093BC01909335
:1004B000BD01A093BE01B093BF01BF91AF919F91C9
:1004C0008F913F912F910F900FBE0F901F90189515
:1004D00026E8230F0296A11DB11DD2CF1F920F92C5
:1004E0000FB60F9211242F933F934F935F936F9307
:1004F0007F938F939F93AF93BF93EF93FF938AE183
:1005000091E00E949501FF91EF91BF91AF919F9172
:100510008F917F916F915F914F913F912F910F90AC
:100520000FBE0F901F9018951F920F920FB60F924B
:1005300011242F938F939F93EF93FF93E0912A01C0
:10054000F0912B018081E0913001F091310182FD29
:100550001BC09081809133018F5F8F732091340194
:10056000821741F0E0913301F0E0E65EFE4F958F97
:1005700080933301FF91EF919F918F912F910F9075
:100580000FBE0F901F9018958081F4CFCF93DF930B
:10059000CDB7DEB7A1970FB6F894DEBF0FBECDBFC3
:1005A000789484B5826084BD84B5816084BD85B54E
:1005B000826085BD85B5816085BD80916E0081605A
:1005C00080936E0010928100809181008260809300
:1005D0008100809181008160809381008091800002
:1005E0008160809380008091B10084608093B1002D
:1005F0008091B00081608093B00080917A00846027
:1006000080937A0080917A00826080937A00809152
:100610007A00816080937A0080917A00806880936C
:100620007A001092C100E0912A01F0912B0182E042
:100630008083E0912601F09127011082E09128014A
:10064000F09129018FEC808310923201E0912E010C
:10065000F0912F0186E08083E0912C01F0912D0133
:10066000808180618083E0912C01F0912D01808157
:1006700088608083E0912C01F0912D018081806859
:100680008083E0912C01F0912D0180818F7D80830A
:1006900083E00E9487009AE0492E512C612C712C36
:1006A00020E0222E20E0322E009102011091030161
:1006B00083E00E9487000115110509F091C060E0F8
:1006C00083E00E94A6000091020110910301209195
:1006D000000130910101020F131F109303010093D9
:1006E00002010E94F2004B015C0184E6C82ED12C6D
:1006F000E12CF12C0E94F200681979098A099B0902
:10070000683E734081059105A8F3F1E0CF1AD10846
:10071000E108F10828EE820E23E0921EA11CB11C14
:10072000C114D104E104F10429F76801110FEE08A6
:10073000FF08F7FE9CC06DE28AE191E00E94B701DC
:1007400022273327A9012C193D094E095F0919A257
:10075000CE0181967C01CA01B901A30192010E94D8
:100760007A04605DF70162937F012115310541052F
:10077000510589F7E114F10461F001900020E9F7D7
:100780003197AF014E195F09B7018AE191E00E94EC
:10079000170142E050E066E171E08AE191E00E94D9
:1007A000170180910201909103018F3F910561F043
:1007B00058F08091000190910101919581959109E6
:1007C00090930101809300012114310409F46CCF4E
:1007D0000E948101882309F467CF0E94000064CF42
:1007E0000F3F110511F461E06BCFEBE6F0E084916F
:1007F000833019F140F48130B1F08230C9F0003813
:1008000011058CF75CCF873011F1883041F18430CD
:10081000B1F78091800080628093800010938B00FC
:1008200000938A0050CF84B5806884BD07BD4BCF4C
:1008300084B5806284BD08BD46CF80918000806809
:100840008093800010938900009388003CCF8091B2
:10085000B00080688093B0000093B30034CF8091E3
:10086000B00080628093B0000093B4002CCFA70149
:10087000960119A2CE0181967C01CA01B901A3019A
:1008800092010E947A04605DF70162937F01211555
:1008900031054105510589F76DCFEAE1F1E0138299
:1008A000128288EE93E0A0E0B0E084839583A68373
:1008B000B78388E091E09183808385EC90E0958711
:1008C000848784EC90E09787868780EC90E0918B1A
:1008D000808B81EC90E0938B828B82EC90E0958B07
:1008E000848B86EC90E0978B868B118E128E138E04
:1008F000148E0895A1E21A2EAA1BBB1BFD010DC088
:10090000AA1FBB1FEE1FFF1FA217B307E407F507BF
:1009100020F0A21BB30BE40BF50B661F771F881F9B
:10092000991F1A9469F760957095809590959B0131
:10093000AC01BD01CF010895EE0FFF1F0590F491AA
:08094000E02D0994F894FFCFAB
:100948000500010000000000B7011701440104027E
:0A0958007501530167010D0A00004C
:00000001FF
